:060000000A128A11F92F1B
:100C02002030831203139400831603139401080007
:100C1200F50083120313851275080A128A111D2624
:100C22000A128A1174080A128A111D260A128A11DE
:100C32008312031385160800F3007308831203134B
:100C420093008C1D252E262E222E8C111530F2009B
:100C52004B30F100BE30F000F00B2D2EF10B2D2E9B
:100C6200F20B2D2E00000800730872047104700448
:100C720003193C2E3D2E802EF901F90A4D2E01302A
:100C8200F8000310F00DF10DF20DF30DF80B422EEA
:100C92000130F8007808F907F31F502E512E402E2C
:100CA20073087702031D5F2E72087602031D5F2E02
:100CB20071087502031D5F2E70087402031C622EF8
:100CC200632E712E7008F4027108031C710FF50275
:100CD2007208031C720FF6027308031C730FF702EB
:100CE20001300310F30CF20CF10CF00CFF3E031D6B
:100CF200722E0130F902031D7F2E802E512E7708AD
:100D0200F3007608F2007508F1007408F00008009C
:100D12000030FC000030FB000030FA000030F90027
:100D220073087204710470040319982E992EE62E2A
:100D3200FD01FD0AA92E0130F8000310F00DF10D9E
:100D4200F20DF30DF80B9E2E0130F8007808FD0726
:100D5200F31FAC2EAD2E9C2E0130F8000310F90DBE
:100D6200FA0DFB0DFC0DF80BAF2E73087702031D75
:100D7200C42E72087602031DC42E71087502031D6B
:100D8200C42E70087402031CC72EC82ED72E7008FA
:100D9200F4027108031C710FF5027208031C720F32
:100DA200F6027308031C730FF70279140130031063
:100DB200F30CF20CF10CF00CFF3E031DD82E0130A7
:100DC200FD02031DE52EE62EAD2E7C08F3007B0806
:100DD200F2007A08F1007908F00008000A128A117C
:100DE20001260A128A11F401F40A0C300A128A113D
:100DF20009260A128A11F4010F300A128A110926F1
:100E02000A128A110F30F4000A300A128A110926D6
:100E12000A128A11FF30F40009300A128A110926D7
:100E22000A128A11F401F40A0F300A128A110926F1
:100E32000A128A11F4010F300A128A1109260A12C3
:100E42008A1183120313B6013608B200B301B4014A
:100E5200B5013508A3003408A2003308A100320806
:100E6200A0000730A4000030A5000A128A115A27F8
:100E72000A128A11033083120313B4000830B3003C
:100E82007630B200B20B432FB30B432FB40B432F78
:100E92000000013083120313B2003208B607633038
:100EA2003602031C552F562F252F222F0A128A1184
:100EB2000028003083120313B1000030B00000306C
:100EC200AF000130AE00BB2F8312031385122E0830
:100ED2000A128A111D260A128A110030F30000300C
:100EE200F2000030F1000A30F000831203132308ED
:100EF200F7002208F6002108F5002008F4000A1283
:100F02008A1135260A128A1170080A128A111D26C0
:100F12000A128A118312031385160030F30000307F
:100F2200F2000030F1000A30F0002308F700220836
:100F3200F6002108F5002008F4000A128A11892619
:100F42000A128A11730883120313A3007208A20003
:100F52007108A1007008A0000130AE07003003182C
:100F62000130AF07003003180130B007003003181A
:100F72000130B1072308220421042004031DC22FDB
:100F8200C32F652F2408A6002508A700A801A901E0
:100F92002E08AA002F08AB003008AC003108AD00C3
:100FA2002608AA022708031C270FD82FD92FAB0225
:100FB2002808031C280FDE2FDF2FAC022908031C90
:100FC200290FE42FE52FAD02AD1BF72F2D08031DCE
:100FD200F82F2C08031DF82F2B08031DF82F0130C2
:100FE2002A02031DF42F031CF72FF82F652F080088
:0E0FF20083120313B60183010A128A11EF2E37
:00000001FF
